:10000000F8FF022099010000FD510000B5510000E9
:10001000B5510000B5510000B5510000B5510000C8
:10002000B5510000B5510000B5510000FD51000070
:10003000FD510000B55100005168000055680000F6
:10004000FD510000FD510000FD510000FD51000078
:10005000FD510000FD510000FD510000FD51000068
:10006000FD510000FD510000FD510000FD51000058
:10007000FD510000FD510000FD510000FD51000048
:10008000FD510000FD510000FD510000FD51000038
:10009000FD510000FD510000FD510000FD51000028
:1000A000B5280000C1280000FD510000FD510000EE
:1000B000FD510000FD510000FD510000FD51000008
:1000C000FD510000FD510000FD510000FD510000F8
:1000D000FD510000FD510000FD510000FD510000E8
:1000E000FD510000FD510000FD510000FD510000D8
:1000F000FD510000FD510000FD510000FD510000C8
:10010000FD510000FD510000FD510000FD510000B7
:10011000FD51000005580000FD510000FD51000098
:10012000FD510000FD510000FD510000FD51000097
:10013000FD510000FD510000FD510000FD51000087
:10014000A54A0000FD510000FD510000FD510000D6
:10015000FD510000FD510000FD510000FD51000067
:10016000FD510000FD510000CD280000FD510000B0
:10017000FD510000FD510000FD510000FD51000047
:10018000FD510000FD510000FD510000FD51000037
:10019000FD510000FD510000584B4CF2205210B5AB
:1001A0001A804DF628121A8000BF00BF05F02AF809
:1001B000534B4FF030621A60524A9A60524ADA60EA
:1001C000524B4FF470021A60514A136813F4807353
:1001D00004D150490B604FF4A85313604E4B1A786A
:1001E000110703D51A7842F008021A704B4B4C499C
:1001F0002A221A704B4A4C4B8B4204D252F8040FFD
:1002000043F8040BF8E7494B494900228B4202D2DC
:1002100043F8042BFAE74749474A002352F82300E2
:1002200041F823000133662BF8D1444B444A802126
:1002300003F8011B9342FBD1424B3E4A1A60424BEA
:100240008A221A70A3F5805324225A70A0221A70B1
:100250009A799207FCD59A79D406FCD43B4A9379D3
:1002600003F00C03082B394BF9D103221A714622F3
:100270005A719A799006FCD5344A9179334B4906E4
:10028000FBD5334A4FF08271116009215160202261
:100290001A709A7902F00C020C2AFAD12D4B2E4AD0
:1002A0001A602E4B2E4A1A6000225A60072243F829
:1002B000042C2C4AC3F80C2D62B605F035F9154B09
:1002C0001B68DA0705D5284805F0C2F8274B284AED
:1002D0001A60284B1B785B0609D5244C244B2268F6
:1002E0009A4204D1204805F0B3F80023236006F0B9
:1002F0000BFB04F08DFF04F0BBFEFEE70E20054073
:1003000030800440823F04000100002B88ED00E0B3
:1003100010D0034014D0034002D0074000E0074053
:100320009CBAFF1FFC7F0000F8ACFF1F9CBAFF1FA8
:100330001854012000A8FF1F0000000000E400E0A6
:1003400056E400E008ED00E00050064000400640A2
:100350004480044004800440C010050014E000E024
:10036000BFD40100000020207C1405601CE0034085
:10037000A5C3945A00F00740FFFFFFFFFFFFFFFFF8
:10038000FFFFFFFFFFFFFFFFFFFFFFFFFFFFFFFF7D
:10039000FFFFFFFFFFFFFFFFFFFFFFFFFFFFFFFF6D
:1003A000FFFFFFFFFFFFFFFFFFFFFFFFFFFFFFFF5D
:1003B000FFFFFFFFFFFFFFFFFFFFFFFFFFFFFFFF4D
:1003C000FFFFFFFFFFFFFFFFFFFFFFFFFFFFFFFF3D
:1003D000FFFFFFFFFFFFFFFFFFFFFFFFFFFFFFFF2D
:1003E000FFFFFFFFFFFFFFFFFFFFFFFFFFFFFFFF1D
:1003F000FFFFFFFFFFFFFFFFFFFFFFFFFFFFFFFF0D
:10040000FFFFFFFFFFFFFFFFFFFFFFFFDEF9FFFF23
:1004100010B5054C237833B9044B13B10448AFF33E
:1004200000800123237010BD9CBAFF1F0000000054
:10043000F87F0000084B10B51BB108490848AFF31E
:1004400000800848036803B910BD074B002BFBD0A0
:10045000BDE81040184700BF00000000A0BAFF1F11
:10046000F87F00009CBAFF1F0000000010B5044692
:1004700004F0C2FA204610BD10B40F490F4A0B68B1
:1004800083B00093009B10681B1AB3F5967F0ED9BA
:100490000B480C4B012404701868032816BF186819
:1004A0000020013018600B680193019B136003B0BA
:1004B0005DF8044B704700BF9C520120004C0120A6
:1004C0007CE40020B4E5002010B40F490F4A0B680B
:1004D00083B00093009B10681B1AB3F5967F0ED96A
:1004E0000B480C4B012404701868032816BF1868C9
:1004F0000020013018600B680193019B136003B06A
:100500005DF8044B704700BF9C520120004C012055
:100510007CE40020604D0120F8B515460E460746E4
:1005200006F04EFD0D4C0146384605F0F5FF022160
:100530000B4805F0F1FF3146204604F0C5FB20468C
:1005400004F072FB0121074805F0E6FF204604F0A5
:100550006BFB2846BDE8F84004F098BFA4B1FF1F2C
:10056000007400001475000070B515460C46064670
:1005700006F026FD0146304605F0CEFF02210D486B
:1005800005F0CAFF002DC8BF2D190ADD14F8011BA4
:10059000094804F099FB0121084805F0BDFFAC4271
:1005A000F4D10121054805F0B7FF0348BDE87040CC
:1005B00004F03ABB00740000A4B1FF1F14750000E2
:1005C000002310B4114C4172026104600372C360D5
:1005D00041B1194600E0026942F82310427A013322
:1005E0009A42F8DC0A4B1A680AB90CE01A465369B9
:1005F000002BFBD15061002343618380C380837251
:100600005DF8044B70471860F5E700BFFC7300000D
:100610002452012015490A68002330B4144C0460A8
:10062000437203610372C3600AB91CE01A4653693E
:10063000002BFBD150610F4C0F4AB4F900300F4929
:1006400001605D1C1A4440F6CC4100232580826184
:1006500043618380C3808372436280F82830C16124
:10066000016230BC70470860E5E700BF24520120FA
:10067000FC73000020520120F541ED5EF47700008C
:10068000F8B506460C4620480D21174605F044FFF4
:1006900031461E4804F018FB1C4804F0C5FA13212B
:1006A0001B4805F039FF002FC8BF002505DC20E0FE
:1006B0009E4210D00135AF421BD094F90010134870
:1006C00004F002FB0121134805F026FF224614F92D
:1006D000013B591CECD171B211700C4804F0F4FAD2
:1006E00001210C4805F018FF084804F09DFA28463F
:1006F000F8BD0521084805F00FFF044804F094FAFE
:100700004FF0FF30F8BD00BF04740000A4B1FF1F1C
:1007100014740000147500002874000010B5042241
:1007200032490446FFF7ACFF002856DB3049314B15
:1007300051F82410304A53F8203052F820202F4C22
:1007400007EE901AF8EEE77A4FF48031F5EEC07AB2
:100750000120F1EE10FA20605962516235D49FED0C
:10076000287AF4EEC77AF1EE10FA20DD2549D96136
:10077000F5EEC07AF1EE10FA29D49FED217AF4EE6D
:10078000C77AF1EE10FA0CDC9FED1F7A1D4967EE77
:10079000877AFCEEE77A17EE903A8B42C2ED077A41
:1007A00001D9184BD361194B01221A6010BD9FED7E
:1007B000167A144827EE877ABCEEC77A17EE101A1D
:1007C000814283ED077AD3D9D0E70021D961002394
:1007D000D3610E4B01221A6010BD13210C4805F0A5
:1007E0009BFE0C48BDE8104004F01EBA50AEFF1F3F
:1007F00054AEFF1F30AEFF1F40AEFF1F88E100E088
:10080000A655AC460000FE7F4B24BE4708E100E041
:1008100030740000A4B1FF1F2DE9F04116460746D1
:100820000D461248132105F077FE002E15DD002439
:100830004FF0FF08A74212BF95F9001085F800801D
:100840004FF0FF310A4804F03FFA01340121094812
:100850000D4405F061FEA642ECD10121054805F0EA
:100860005BFE0348BDE8F04104F0DEB914740000FB
:10087000A4B1FF1F147500000D4A002312F9011BDB
:10088000884203D00133042BF8D1704709490A4A42
:1008900051F82300064910B452F823400022426266
:1008A0006262184604225DF8044BFFF7B5BF00BF33
:1008B00050AEFF1F30AEFF1F40AEFF1F092909DCFD
:1008C0008B005A1882420BDBC91A8842ACBF002049
:1008D00001207047312905DC4B005A188242F3DAB7
:1008E0000120704707EE901A6329C5BFF8EEE77A3A
:1008F0009FED057AFAEEEF7A67EE877AFDEEE77AFA
:1009000017EE903ADDE700BFCDCC4C3D2DE9F84F16
:100910000024DFF8608007460E46151FA146BB463F
:100920004FF0000A44FA0AF111F001039BF80000AD
:100930004FF001010AF1010A08BF194604F09AFDBF
:10094000BAF1030F0BF1010BECD1304604F012FBAE
:1009500055F8041F8246FFF7B1FF08F8040018B1EC
:10096000C5F800A04FF001090134082CD7D1484642
:10097000BDE8F88F98E60020F8B52D4C2D4B2E4A97
:100980002678DA614FF40040002103225862196290
:100990005A864EBB0023294A1C464EF2666746F231
:1009A000666041F6991506E003293AD901330D2B0B
:1009B00002F104020DD0032BA3F10801F4DC11684D
:1009C00001330D2B8861C8610D624C6202F1040293
:1009D000F1D106B9F8BD1221194805F09DFD19485D
:1009E000BDE8F84004F020B91521174805F094FD42
:1009F000144804F019F92678002ECBD0172113489B
:100A000005F08AFD0F4804F00FF92678002EC1D0BA
:100A100015210F4805F080FD0A4804F005F92678F5
:100A2000B8E711688F61CC610C624C62BEE700BF11
:100A30002BAEFF1F2CE70020C09C8D02D8ADFF1FFE
:100A40008C740000A4B1FF1F447400005C740000AB
:100A5000747400002DE9F047DFF8D48298F8003074
:100A60002DED068B0646002B40F0E380994DDFED1F
:100A70009A8A9FED9A8A9FED9AAADFED9A9A9A4FE9
:100A80009FED9A9A002315F8012F5C1CBAB1013B27
:100A9000062B05D8DFE803F08B5A131317A6340092
:100AA0003168934B01EB81011A68924B490048BFB2
:100AB00001F2FF31891253F8220002F087FB082C63
:100AC00040D02346DFE7D6ED057A894A8A4B126883
:100AD000B8EEE77AF7EE006AC7EE287A53F82220DC
:100AE00077EE887AF4EEE67AF1EE10FA40F3D580EC
:100AF00047F6705302F5AC42A2F860302346C2E7D5
:100B0000D6ED077AF8EEE77AF5EEC07AF1EE10FA54
:100B100000F1D3809FED797AF4EEC77AF1EE10FA06
:100B200000F399809FED767A7649774A67EE877A67
:100B3000FCEEE77A17EE903A8B42C2ED077A01D9C4
:100B4000704BD361BDEC068BBDE8F087684BB16894
:100B500018686E4A4AF6434303FB01F387FB03E13F
:100B60001944DB17C3EB6121013107EE901AF8EE4F
:100B7000E76AB6EE007AC9EE267A52F8200077EEE0
:100B8000877AFDEEE77A17EE903A002B40F38380E8
:100B9000402BA8BF4023DBB298F800204376002A00
:100BA0008FD000225A48FFF7B7FC23466BE77168E5
:100BB00098F80020DFF878A10B0148BF03F2FF335B
:100BC0009B1203F10109002A47D1494B4F4A19688A
:100BD0005FFA89F3102B52F8212025D910231376C0
:100BE000234650E7D6ED067A414A434B1268B8EEE9
:100BF000E77AF7EE006AC7EE287A53F8222077EEFC
:100C0000887AF4EEE67AF1EE10FA34DD44F6CD405F
:100C100043F2333372B602F5AC41A1F85C30A1F86F
:100C20005E0062B623462EE7002B08BF0123137631
:100C3000D6E71721374805F06FFC374803F0F4FF7B
:100C400098F80030002B3FF411AF082233493448A4
:100C5000FFF78AFC0AE72C4A72E700223148FFF7C7
:100C60005BFC9AF80030002BAFD0002249462E489A
:100C7000FFF752FCA9E7F5EEC07AF1EE10FA23D4A3
:100C800067EE8A7AFDEEE77A17EE903AC3F50040F8
:100C900000B21BB2BEE701237EE7F5EEC07AF1EEAB
:100CA00010FA14D467EEA97AFDEEE77A17EE903ABF
:100CB00003F5B34319331BB21CE7BDEC068B124B93
:100CC0000022DA61BDE8F08718480023A2E745F664
:100CD00099130FE797E6002000C07F440000000052
:100CE000CDCC4C46295C0F4603082080A6552C47E6
:100CF000B4E5002094AEFF1F84AEFF1FA655AC469E
:100D00004B24BE470000FE7F2CE7002014AEFF1FDF
:100D1000FC740000A0740000A4B1FF1F98E600203E
:100D2000B8740000CC740000E47400000080FFFF81
:100D30002BAEFF1F70B51C4C237806460D46DBB961
:100D4000032D15DC032E13DC0024E1B2002217482A
:100D5000013401F061FE082CF7D1291DC9B201222E
:100D6000124801F059FEF1B20122104801F054FE80
:100D70000F4B00221A7070BD13210E4805F0CCFBFA
:100D80000D4803F051FF2378002BD9D000223146C3
:100D90000A48FFF7C1FB2378002BD1D00022294657
:100DA0000748FFF7B9FBCBE72BAEFF1F9C4D012097
:100DB0007CE4002050750000A4B1FF1F64750000A2
:100DC0007475000070B52848284E294D01F0F4FED6
:100DD00000240346308007E02B882341D80732D413
:100DE000338801340C2C12D043FA04F2D207F3D525
:100DF0002A882241D107F4D42046FFF78FFC33889C
:100E000043FA04F2D207E7D501340C2CECD119498E
:100E1000194A097819482B80FFF778FDC0B9184B9B
:100E2000184A19781848FFF771FD184B1B7873B1F1
:100E3000174B1B7883B9174A174B10681968BDE820
:100E40007040FFF777BF2046FFF716FDC8E770BD7B
:100E50000948FFF7FFFDE2E71A21104805F05CFBA7
:100E60000F4803F0E1FEE6E7484E0120C44F0120A1
:100E7000184F01202CAEFF1FA84A012028AEFF1FEB
:100E800024AEFF1F504C01200CAEFF1F7CE400205D
:100E90002BAEFF1FB4E50020604D012084750000DB
:100EA000A4B1FF1F00B52C2183B0104805F034FB1E
:100EB0000F4803F0B9FE062300930E4A0E480C2398
:100EC0005A2101F001FF38B91F210C4805F024FB1D
:100ED000074803F0A9FEFEE70D21094805F01CFBB9
:100EE000034803B05DF804EB03F09EBEA07500005C
:100EF000A4B1FF1F7CAFFF1F484E0120D07500003A
:100F0000F0750000F8B526214B484C4E4C4D4D4C29
:100F100001F0C6F92521484801F0F4F9A0214A481A
:100F200003F03AFC494801F071FF7421474802F090
:100F30000BF83078012104F0A3FA7078012104F055
:100F40009FFAB078012104F09BFA2878012104F07F
:100F500097FA6878012104F093FAA878012104F047
:100F60008FFA2078012104F08BFA6078012104F0D7
:100F700087FAA078012104F083FA0221242004F0EA
:100F80007FFA0221232004F07BFA2B49304801F03C
:100F900031FD00240122E1B22D48144401F02EFD60
:100FA000082CF7D102222B49232004F0D5F9022284
:100FB0002949242004F0D0F90024E1B20022244879
:100FC000013401F029FD082CF7D1244E244D254C85
:100FD000254FFFF767FFFFF7CFFC41F69913336208
:100FE00046F26663B361F3610023204973624FF4F4
:100FF00080361F481F4ADFF880E0EE616662AB6111
:101000002B626B62A3610325E36123621026012436
:10101000C1F81CE04B620B624D863E7643F23331E1
:101020007C76C0F81CE04362036245869161D16121
:1010300011625162F8BD00BF7CAFFF1F28AEFF1FD9
:1010400010AEFF1F0CAEFF1F0002FF1FA44D0120BA
:101050009C4D0120C9040000790400001C4F0120B0
:10106000B8BAFF1F644D0120084D0120544F0120E4
:10107000284D0120C4510120F46E06022DE9F04FE5
:10108000DFF83883B34FDFF83893DFF838B3DFF891
:1010900038A3B14D002283B0114640460024FFF72B
:1010A0008FFA4FF08046AD48C8F80070C8F8286045
:1010B000C8F81840C8F81C40C8F82040C8F82440B8
:1010C000C8F82C40A8F83040A8F83240A8F83440BE
:1010D000FFF7A0FA22462146A148FFF771FAA04B7C
:1010E000A0481F609E629C61DC611C625C62DC62E5
:1010F0001C865C869C86FFF78DFA9B48FFF78AFA70
:10110000224621469948FFF75BFA984B98481F60A2
:10111000224621469E629C61DC611C625C62DC624C
:101120001C865C869C86FFF74BFA914B91481F60AA
:101130009E629C61DC611C625C62DC621C865C8677
:101140009C86FFF767FA224621468B48FFF738FA5C
:10115000894B8A481F60224621469E629C61DC6161
:101160001C625C62DC621C865C869C86FFF728FA47
:10117000824B83481F60224621469E629C61DC614F
:101180001C625C62DC621C865C869C86FFF718FA37
:101190007B4B2246214648461F609E629C61DC6173
:1011A0001C625C62DC621C865C869C86FFF708FA27
:1011B000224621467348C9F80070C9F82860C9F86A
:1011C0001840C9F81C40C9F82040C9F82440C9F8A3
:1011D0002C40A9F83040A9F83240A9F83440FFF774
:1011E000EFF9684B0BF12802042158461F609E62FC
:1011F0004FF480379C61DC611C625C62DC621C869F
:101200005C869C86FFF7DCF90AF12802042150462F
:10121000CBF80050CBF81870CBF81C70CBF82070CE
:10122000CBF82470FFF7CCF9574BCAF8005003F104
:10123000280218460421CAF81870CAF81C70CAF8A7
:101240002070CAF82470FFF7BBF9504B504E03F1E1
:10125000280218464C4B04211D609F61DF611F620C
:101260005F62FFF7ADF94B4B03F118021846474B8D
:1012700001211D609F61DF611F625F62FFF7A0F9BE
:10128000454B03F118021846424B01211E6002260D
:101290005E62FFF795F9414B3D4E03F11802184687
:1012A0003D4B01211E6002265E62FFF789F93B4B30
:1012B000374A3B481A605E6202F030FB394B344ECD
:1012C00003F1180218460121FFF77AF9364B03F1B2
:1012D00018021846334B01211E6002265E62FFF79A
:1012E0006FF9314B314A1A604FF03A025A854FF08C
:1012F0000E029A854FF0C102DA854FF000524FF08E
:101300001C081A6340F277629A861C85A3F836801F
:1013100027481C7702F002FB2648244E02F0FEFA12
:10132000254B012103F118021846FFF749F9224B1A
:101330001E4A1A604FF03A025A854FF00E029A8503
:101340004FF0C102DA854FF000521A6340F2776223
:101350009A863BE0007B0000DC770000F84A012021
:1013600098500120284B0120C84A0120D05001206C
:1013700060500120DCE30020B8E40020544F01203D
:10138000F0E40020284D012078510120085101206F
:10139000B47600000850012034500120DC4F0120B9
:1013A000901D00208CE70020904B0120C0760000AB
:1013B00030800020F0BAFF1FC84B01202CE700202E
:1013C00080E40020405101201C4F01201C85A3F81F
:1013D00036807C481C7702F0A1FA7B4B012103F197
:1013E00018021846FFF7ECF8784B03EB0802184692
:1013F000754B1E604FF03A065E854FF00E069E85D7
:101400004FF0C106DE854FF000561E6340F277664E
:101410009E8601211C85A3F836801C77FFF7D0F843
:101420006B4B6C4E03EB08021846684B01211E60A3
:10143000FFF7C6F8684B03EB08021846644B01211E
:101440001E60FFF7BDF8654B03EB08021846624BC0
:1014500001211E60FFF7B4F8614B03F11802184632
:101460005E4B01211E60FFF7ABF85D4B5D4A1A60D1
:101470005D4B03F128021846594B4FF03A065E8542
:101480004FF00E069E854FF0C106DE854FF00056E8
:101490001E6340F2776604211C859E86A3F8368081
:1014A0001C77FFF78DF8514B03F1280218464E4B7D
:1014B00004211D609F61DF611F625F62FFF780F89A
:1014C0004B4B03F128021846484B04211D609F61D5
:1014D000DF611F625F62FFF773F8464B03F128027A
:1014E0001846434B04211D609F61DF611F625F62EC
:1014F000FFF766F8404B03F1280218463D4B0421E4
:101500001D609F61DF611F625F62FFF759F83B4B0F
:1015100003F128021846384B04211D609F61DF61EA
:101520001F625F62FFF74CF8354B03F12802184643
:10153000324B04211D609F61DF611F625F62FFF714
:101540003FF8304B03F1280218462D4B04211D6053
:101550009F61DF611F625F62FFF732F82A4B03F180
:1015600028021846274B04211D609F61DF611F621E
:101570005F62FFF725F8244B24481D60244B03F1DC
:101580001801214B9F61DF611F625F62A1F11803A7
:101590004FF002051860196101F80F5C1C72DC60E5
:1015A00022460B462046183900E00B6943F822001A
:1015B000174B5C7A01329442F7DC16490A6862BB29
:1015C00000F0BFBDE0E70020044C012044E600200D
:1015D00078E60020A876000084E30020084D012072
:1015E000584B0120C07600008C4F0120FC4D01209B
:1015F000B04D0120B8BAFF1F44E40020A4E300204E
:101600000CE40020644D0120C4510120FC73000053
:10161000984C0120245201201A465369002BFBD11B
:10162000C04B5361BF48C04EC04B036000244461AF
:101630008480C480847202F011FCBD4B336030465C
:101640004FF00103BB4D73723472C6F804B0F460FE
:10165000347403F09DF9B84AB849DFF87083B84F85
:10166000304605F03FF9B74BB74E2C72284685E857
:1016700008086C72EC602C7403F08AF9AF49AE4A2A
:10168000284605F02FF9B14AB14B726030464FF051
:101690000102B04D336034727272F460347403F03E
:1016A00077F9A649A44A304605F01CF9AA4AAB4B83
:1016B0006A6028464FF00102A94E2B602C726A72B4
:1016C000EC602C7403F064F99B4A9C49284605F0B1
:1016D00009F9A44B336030469C4BA34D73603472C0
:1016E0007472F460347403F053F9934A93493046AA
:1016F00005F0F8F89D4B2B602846974B6B602C72D9
:101700006C72EC602C7403F043F98C498A4A984E51
:10171000284605F0E7F8974BC8F8003040464FF0F0
:10172000010288F80840C8F804A088F80920C8F821
:101730000C4088F8104003F02BF97F4A7F498E4D0A
:10174000404605F0CFF88D4B3C7287E808083846D4
:101750004FF002037B72FC603C7403F019F9764A87
:101760007649DFF86C82384605F0BCF8844B347259
:10177000304686E808047472F460347403F008F9A3
:101780006D4A6E497F4F304605F0ACF87E4B2B60BA
:101790006E4B6B6028464FF002036B722C72EC604C
:1017A0002C7403F0F5F8644A6449784E284605F035
:1017B00099F8694BC8F8043040464FF0020388F8A6
:1017C000093088F80840C8F80090C8F80C4088F83C
:1017D000104003F0DDF8584A58496D4DDFF8F49198
:1017E000404605F07FF86B4B3C7287E808043846AA
:1017F0004FF002037B72FC603C7403F0C9F8664B47
:101800004E494D4A0193384605F06CF86348644AE6
:101810000472C0F800B042604472C460047403F003
:10182000B7F8454A45495D48DFF8AC815D4F05F0A2
:1018300059F85D4B736030463472C6F800B074726C
:10184000F460347403F0A4F83B4A3C49304605F098
:1018500049F8564B6B6028462C72C5F800B06C7284
:10186000EC602C7403F094F8334A3449504E284607
:1018700005F038F84F4BC9F80430484689F808405D
:10188000C9F800B089F80940C9F80C4089F810403F
:1018900003F07EF8284A2949474D484605F022F8CA
:1018A000464BC8F80430404688F80840C8F800B0F5
:1018B00088F80940C8F80C4088F8104003F068F830
:1018C0001E491D4ADFF81491DFF814B1404605F0B7
:1018D00009F8019B3A4A1C721846C3F800A05A60E6
:1018E0005C72DC601C7403F053F8019B124A1349CC
:1018F000DFF8F080184604F0F5FF324B7B60384685
:101900003C72C7F800A07C72FC603C7403F040F8A5
:10191000094A0A49384604F0E5FF2B4B736030460C
:1019200062E000BF984C012028E50020E877000025
:10193000F84A01203CE50020D4ADFF1F6D040000F3
:10194000804A01209850012050E500207851012064
:10195000284B012064E5002008510120C84A0120DD
:1019600078E50020D0500120B8E700206050012029
:10197000944A0120DCE30020E84D0120B8E4002077
:10198000544F0120CCE50020F0E40020F4E50020D5
:1019900008E60020284D0120504E0120E0E50020FF
:1019A000904B012064E60020901D0020085001208B
:1019B0003C4C012044E600208CE5002044E400205B
:1019C000044C0120E0E700208CE70020A0E5002087
:1019D000B8E500201CE6002030E60020704C012015
:1019E000844C0120B05101203472C6F800A07472FA
:1019F000F460347402F0CCFFC54AC649C64F304685
:101A000004F070FFC54B6B6028462C72C5F800A02F
:101A10006C72EC602C7402F0BBFFBD4ABD49C04E35
:101A2000284604F05FFFBF4BC9F80430484689F8E8
:101A30000840C9F800A089F80940C9F80C4089F8A5
:101A4000104002F0A5FFB24AB249B74DDFF84CA3EF
:101A5000484604F047FFB54BCBF800305846B44B2E
:101A6000CBF804308BF808408BF80940CBF80C40D9
:101A70008BF8104002F08CFFA54AA649DFF82093AE
:101A8000584604F02FFFA94BC8F800304046A94B38
:101A9000C8F8043088F8084088F80940C8F80C40B5
:101AA00088F8104002F074FF994A9A49DFF8F4B2BE
:101AB000404604F017FF9D4B3B6038469E4B7B60D1
:101AC0003C727C72FC603C7402F062FF904A914967
:101AD000DFF8D482384604F005FF944B336030467B
:101AE000964B736034727472F460347402F050FF79
:101AF000874A8849924F304604F0F4FE8B4B2B60A6
:101B00002846904B2C726B606C72EC602C7402F067
:101B10003FFF7F4A7F498C4B0193284604F0E2FE49
:101B20008A4BCAF800305046894BCAF804308AF80C
:101B300008408AF80940CAF80C408AF8104002F0C0
:101B400027FF734A7349834E834D504604F0CAFE03
:101B50007E4BC9F800304846804BC9F8043089F8FC
:101B6000084089F80940C9F80C4089F8104002F093
:101B70000FFF674A6749DFF834A2484604F0B2FE17
:101B8000724BC8F800304046754BC8F8043088F8EE
:101B9000084088F80940C8F80C4088F8104002F066
:101BA000F7FE5B4A5B49DFF80892404604F09AFE74
:101BB000664B3B6038466B4B7B603C727C72FC60D2
:101BC0003C7402F0E5FE524A5249DFF8E88138469B
:101BD00004F088FE5D4B33603046634B73603472B3
:101BE0007472F460347402F0D3FE494A49495F4F7D
:101BF000304604F077FE5E4B2B6028465D4B6B60F1
:101C00002C726C72EC602C7402F0C2FE4149404AA6
:101C1000594E284604F066FE019B474A1A60184652
:101C2000564A1C725A605C72DC601C7402F0B0FE92
:101C3000019B374A3749524D1846524B019304F0E5
:101C400051FE474BCBF8003058464F4BCBF8043091
:101C50008BF808408BF80940CBF80C408BF810400B
:101C600002F096FE2A4A2B49584604F03BFE474BA9
:101C7000CAF800304FF0030B3E4BCAF80430504610
:101C80008AF80840CAF80C408AF810408AF809B06F
:101C900002F07EFE1E4A1F49504604F023FE3C4BD4
:101CA000C9F8003048463B4BC9F8043089F8084071
:101CB00089F80940C9F80C4089F8104002F068FE24
:101CC000134A1449DFF8F0A0484604F00BFE324BEB
:101CD000C8F80030274BC8F8043040464FF00203E4
:101CE00088F8093088F80840C8F80C4088F8104097
:101CF00002F04EFE064A0749DFF8C090404604F065
:101D0000F1FD0C4B3B6038461C4B7B6058E000BF3C
:101D1000D4ADFF1F6D040000B84C0120084D012018
:101D2000CC4C0120644D0120E04C01207851012071
:101D3000C84B0120308000203450012078E600207C
:101D4000344E0120A4E30020A04E012008510120C0
:101D5000584B0120784E01208C4E0120F0BAFF1F15
:101D6000DC4F012084E300200CE40020044F01201C
:101D700008500120FC4D0120B4E600208C4F0120CA
:101D8000D0E20020F8E20020B04D0120901D00209C
:101D90008CE70020B8BAFF1F904B0120F44C0120C3
:101DA000A0E60020B44E0120644E0120C84E012060
:101DB000DC4E0120F04E012048E300205CE30020CF
:101DC00087F809B03C72FC603C7402F0E1FDB24A55
:101DD000B249DFF84C83384604F084FDB04B3360E1
:101DE0003046B04B736086F809B03472F4603474D6
:101DF00002F0CEFDA84AA949AB4F304604F072FD6F
:101E0000AA4B2B60AA4B6B6028464FF002036B7203
:101E10002C72EC602C7402F0BBFDA0499E4AA54ECA
:101E2000284604F05FFDA448A44A0260A44A426028
:101E300080F809B00472C460047402F0A9FD9749E7
:101E4000954A9D489F4D04F04DFD019B9E4A1A60A6
:101E50009B4A5A6018464FF002021C725A72DC60AC
:101E60001C7402F095FD019B8C498B4A184604F0C6
:101E700039FD9648964A0260964A42604FF0010248
:101E800004724272C460047402F082FD8349824A83
:101E90008E4804F027FD9048904A0260844A4260D0
:101EA0004FF0010204724272C460047402F070FDCB
:101EB0007A49794A884804F015FD8948894A0260C0
:101EC000784A42604FF0010204724272C4600474A6
:101ED00002F05EFD704A7149814804F003FD824BB7
:101EE000CAF80030764BCAF8043050464FF0010370
:101EF0008AF809308AF80840CAF80C408AF810407D
:101F000002F046FD644A6549504604F0EBFC774B0D
:101F1000C9F80030634BC9F8043048464FF002035B
:101F200089F8093089F80840C9F80C4089F8104050
:101F300002F02EFD5949584A484604F0D3FC6C483B
:101F40005B4A02606B4A0472426080F809B0C46068
:101F5000047402F01DFD504A5049654804F0C2FC6B
:101F60005C4BC8F800304046634BC8F8043088F832
:101F7000084088F809B0C8F80C4088F8104002F012
:101F800007FD4649444A404604F0ACFC5B48454ADC
:101F900002605B4A0472426080F809B0C460047455
:101FA00002F0F6FC3D493C4A544804F09BFC55487D
:101FB000434A0260544A0472426080F809B0C46027
:101FC000047402F0E5FC3549334A4E4804F08AFCBB
:101FD0004E484FF002024272474A02604C4A426049
:101FE0000472C460047402F0D3FC2C492A4A4748A6
:101FF00004F078FC47483F4A0260454A80F809B03F
:1020000042600472C460047402F0C2FC2349224A94
:10201000404804F067FC4048394A02603C4A42604C
:102020004FF0010204724272C460047402F0B0FC0A
:10203000194A1A49384804F055FC334B2B6028469E
:10204000334B6B602C726C72EC602C7402F0A0FC51
:10205000114A1249284604F045FC2D4B3B60384696
:102060002E4B7B603C727C72FC603C7402F090FCF6
:10207000094A0A49384604F035FC4FF001037372EF
:10208000234B33603046254B73603472F4603474F4
:1020900002F07EFC304645E0D4ADFF1F6D04000029
:1020A000F0BAFF1FB04D012064E70020C84B0120AB
:1020B0008C4F012078E70020E4E20020E0E70020D8
:1020C000B8BAFF1FC84F0120044C01200CE30020C8
:1020D00044E60020FC4D012020E3002078E60020AB
:1020E00034E3002084E30020084D0120584B0120F8
:1020F00070E30020A4E3002044E40020DCE600209C
:102100000CE40020CCE70020644D0120F0E6002024
:10211000C451012004E7002018E70020984C01205A
:10212000C8E60020084A094904F0DCFB084B094ACC
:1021300009481A600A221A7203B0BDE8F04F00F095
:102140008BBC0B60FFF76EBAD4ADFF1F6D040000AF
:10215000A44D01208C760000484E012000207047DD
:1021600090F8392090F83800101A704790F83830FD
:1021700090F839209A4205D95A1C034480F8382037
:10218000187E70474FF0FF30704700BF90F838302E
:1021900090F839209A4286BF1B18187E4FF0FF3006
:1021A000704700BF704700BF38B50546B0F85E0005
:1021B00090B195F85D301446C3F1210294420CD8D9
:1021C00005F13B001844224602F05AFF95F85D30B5
:1021D000234485F85D30204638BD0120144628711F
:1021E000EEE700BFB0F85E306BB190F85D30202BA9
:1021F00007D8C218013380F85D30012082F83B1007
:102200007047012303710020704700BF002342691B
:1022100080F8383080F8393080F85C3080F85D30F4
:1022200080F85E3080F85F3006CA30B40D6804690B
:1022300043662A4383660A60A370426990F861305E
:102240001649146813441D7A5B7B01EBC5051B021C
:102250006D6803F4E06343F064032B6090F8623030
:1022600013449D7CDB7D01EBC5011B02496803F42F
:10227000E06343F064030B6021685368194205D0A2
:1022800003692C225A70036904229A71036920227F
:102290005A71036980229A7030BC7047547D0000E7
:1022A00070B490F8613045692B441E7A8E420AD092
:1022B000EC1D002314F8012FFF2A04D08A4204D019
:1022C0000133052BF6D170BC704795E8060009680C
:1022D000114211D00A4901EBC6061D447268002460
:1022E00014602C7A6A7B01EBC401120202F4E062F2
:1022F000496842F064020A6080F86130E3E700BF99
:10230000547D000070B490F8623045692B449E7C87
:102310008E420BD005F11104002314F8012FFF2A7F
:1023200004D08A4204D00133052BF6D170BC70472B
:1023300095E806000968114211D00A4901EBC6066A
:102340001D44726800241460AC7CEA7D01EBC4017A
:10235000120202F4E062496842F064020A6080F806
:102360006230E3E7547D000038B50269D478E4B206
:10237000E106054624D51023D37063061FD504F06B
:10238000040404F0FF03002C5AD042496A6E002373
:102390000B7085F85D30002A66D0904795F85D3067
:1023A000002B61D02B69D0229A702B6995F83B20C5
:1023B0001A712B69012285F85C200222DA7038BD7F
:1023C00004F0400303F0FF00002BD8D19379DBB277
:1023D00003F0600160294ED0937803F0100303F0FE
:1023E000FF01B3B114F0010437D195F85C3095F8D2
:1023F0005D1099424BD9591C2B4485F85C1093F819
:102400003B3013712B69D0229A702B690222DA704B
:10241000D5E785F86010937943F0200393712B6919
:1024200095F839101A791F29D2B2C6D81948007800
:102430000028C2D06818013185F839100276BCE74F
:102440002A6985F83930C02393702B69114A1979AC
:10245000012111700222DA70B1E7C02393702B6959
:102460001A790222DA70AAE70122002385F85D209A
:1024700085F83B3096E703F0DF039371AB6E23B131
:1024800085F8380095F8390098472A69A4E714714F
:10249000B8E700BFFC5101202DE9F047374FDFF8C6
:1024A000E0903B68026982B006460093DDF8008048
:1024B0000021C825D3789B065BD53B680193019B1F
:1024C000C8EB03030F2BF5D949B1102BF2D0002034
:1024D0009070336980229A7002B0BDE8F08772690B
:1024E00096F8613013440521187A02F0C9FF726929
:1024F00096F861301344012193F812A0504602F07F
:10250000BFFF09240021504602F0B4FF2B46013BD7
:10251000FDD10121504602F0ADFF2B46013BFDD11C
:10252000013CEFD1706996F8611001444FF4C87214
:102530000C7A4B7B09EBC4011B02496803F4E0638E
:1025400043F064030B6096F862300344997CDB7DB2
:1025500009EBC1011B02496803F4E06343F0640323
:102560000B60013AFDD13269D3789B064FF001012F
:10257000A3D4012002B0BDE8F08700BF9C52012027
:10258000547D0000F0B503691222DA700269937875
:1025900003F0200385B004460D46002B5ED0B42323
:1025A00093703C4922690B680093009E05E00B681C
:1025B0000193019B9B1B042B42D8D37803F020038B
:1025C00003F0FF00002BF2D094F85D30002B31D0E7
:1025D0004FF0000E4FF0020C04EB0E0393F83B306B
:1025E00013710B680393039F206907E09B060DD5C9
:1025F0000B680293029BDB1B052B28D8C378DBB248
:1026000003F0020202F0FF06002AEFD080F803C0B8
:102610002669F378DBB2DF0632462DD49F062BD530
:10262000DB0731D40EF1010E94F85D305FFA8EFEB7
:102630007345D1D800201DBB002384F85E3004E030
:102640009070236980229A70042005B0F0BD8670D6
:102650002369802204209A7005B0F0BD03F0FF06C4
:10266000FFF71AFF10B9042005B0F0BD236984F804
:102670005F60B0229A7094E78023B3700420DAE799
:1026800026698023B370D7E7BEF1000F0CBF02208C
:102690000320F6E79C5201202DE9F0410669002550
:1026A000122780F8385080F83950F770D0F810C0F1
:1026B0009CF802E00EF0200E88B0044688461546CD
:1026C0001E46BEF1000F49D0B4238CF80230784B7F
:1026D00021691A680092DDF800E006E01A680192AC
:1026E0000198CEEB0000042830D8C87800F0200014
:1026F00000F0FF070028F1D04FEA480242F0010243
:10270000D2B20A711A680292DDF808E0206906E088
:102710001A6803920399CEEB010105292AD8C178E2
:1027200001F0020101F0FF070029F1D04FF0020C87
:1027300080F803C02269D17811F0110722D12DBB96
:10274000002E0CBFA0238023937003E08F702369B9
:1027500080229A70384608B0BDE8F0810EF0FF077D
:10276000FFF79AFE0028F5D0236984F85F70B02245
:102770009A70ACE787702369802238469A7008B057
:10278000BDE8F081802393700027E3E7012D75D029
:10279000A021917021690A79BE4667464FF0A80CC6
:1027A0001A680492049805E01A680592059A121AAC
:1027B000052A4AD8CA7802F0020202F0FF08002A6D
:1027C000F2D0CF702169CA78D2B212F0100F084649
:1027D0005AD1920658D5013DEDB2012D49D0BEF136
:1027E0001F0F3BD90A79012DDAD11A680692069D8E
:1027F00005E01A680792079A521B052A46D8C27844
:1028000002F0020202F0FF01002AF2D00223C3709C
:102810002269D378DBB2D9063AD49B0634D5B023EB
:10282000BEF11F0F93703FD8226904EB0E0312799B
:102830001A760EF1010E5FFA8EFE16B12369802220
:102840009A7084F839E0774684E781F8028023693A
:1028500080229A70774684F839E07BE704EB0E0219
:1028600091F8048082F818800EF1010E5FFA8EFE56
:10287000B9E781F802C021690846B0E7A821917044
:102880002069BE460279B0E7774663E78170DEE7EC
:102890001021C823D170013BFDD12269937803F048
:1028A000F7037746937055E723691B79C5E700BFA7
:1028B0009C5201200148FFF757BD00BF10AFFF1F1A
:1028C0000148FFF751BD00BF7CAFFF1F0148FFF774
:1028D0004BBD00BFA4AEFF1F38B502784368012589
:1028E000AA4042F0400283F83B2083F85E5083F810
:1028F0005D500446406803681B6898472946606835
:10290000FFF740FE217860682B462A4641F02001FF
:10291000FFF7C2FE60680B4A03685B6993420BD104
:1029200090F8383090F839209A4208D95A1903445F
:1029300080F83820187E38BD9847C0B238BDFF20D7
:1029400038BD00BF6D21000070B503780125044635
:10295000AB40406843F0400380F83B3080F85E5065
:1029600080F85D50606803681B6816469847606889
:10297000036831461B68984729466068BDE8704087
:10298000FFF700BEF8B59DF81840072998BF1C4610
:102990000D462146174605F007050646FFF79CFF42
:1029A0000122AA4047B920EA020221463046D2B2AB
:1029B000BDE8F840FFF7C8BF024321463046D2B217
:1029C000BDE8F840FFF7C0BF10B50729044628BF8F
:1029D0000721426010462170FFF718FC2046FF22B5
:1029E0000021FFF7B1FF2046FF220121BDE8104082
:1029F000FFF7AABF0A460021FFF7E6BF00B583B084
:102A00000123B2FA82F2009352090023FFF7BAFFC2
:102A100003B05DF804FB00BF0829F8B50C4634BFCD
:102A2000142115211746054604F00706FFF754FF49
:102A3000012303FA06F257B10243D2B2082C28460A
:102A400034BF12211321BDE8F840FFF77DBF20EA13
:102A50000202D2B2F2E700BF704700BF38B5027879
:102A600043680125AA4083F83B2083F85E5083F831
:102A70005D500446406803681B6898470021606801
:102A8000FFF780FD2B462A4621786068FFF704FE99
:102A90006068134A03681B6993421AD190F8393071
:102AA00090F83800181A002811DD60680D4A036894
:102AB0005B6993420FD190F8383090F839209A42F0
:102AC0000CD95A1C034480F83820187E38BD0020E9
:102AD00038BD9847E7E79847C0B238BDFF2038BDFA
:102AE000612100006D21000038B50278436801259E
:102AF000AA4083F83B2083F85E5083F85D5004467B
:102B0000406803681B68984700216068FFF73AFD3A
:102B10002B46022221786068FFF7BEFD6068244AD8
:102B200003681B6993422DD190F8393090F8380032
:102B3000181A012824DD60681E4D03685A69AA42EC
:102B400022D190F8383090F839209A4229D95A1C6D
:102B500080F83820034460681B7E02685269AA42EC
:102B600019D190F8382090F8391091421CD9511C95
:102B7000024480F83810107E43EA002080B238BD4D
:102B8000002038BD9847D4E7904703466068026844
:102B90005269AA42E5D01CB2904744EA002080B2B4
:102BA00038BD4FF6FF7038BD63F0FF0398B238BDF3
:102BB000612100006D21000008B50021FFF794FF9E
:102BC000C0F30B0008BD00BF2DE9F84389465E2124
:102BD00017460446FFF742FFB9F15E0F804603D067
:102BE000A9F17303072B1BD80026227863685200D3
:102BF000012583F83B2083F85E5083F85D506068C0
:102C0000036849461B6898476068036839461B6833
:102C1000984729466068FFF7B5FCDEB9BDE8F88340
:102C2000227863680125520083F83B2083F85E50C8
:102C300083F85D50606803685E211B689847606890
:102C4000036800211B689847294660682E46FFF7F5
:102C500099FCCAE722786368AA4083F83B2083F88E
:102C60005E5083F85D50606803685E211B6898477A
:102C70006068036841461B68984729466068BDE85C
:102C8000F843FFF77FBC00BFF8B50F4616465E213C
:102C900000220546FFF798FF412421463A46284680
:102CA000FFF792FF611C0234C9B232462846E4B2F3
:102CB000FFF78AFF592CF0D128468F225E21BDE80C
:102CC000F840FFF781BF00BF70B504460170426055
:102CD00010461D469DF81060FFF798FA6322802188
:102CE0002046FFF771FF012002F0D0FB20460022B2
:102CF0005E21FFF769FF20465D21FFF7AFFE242824
:102D000001D0002070BD324629462046FFF7BCFFA7
:102D1000204601222B21FFF757FF204601222C21BC
:102D2000FFF752FF20460E222D21FFF74DFF2046D0
:102D300000222E21FFF748FF204601222F21FFF716
:102D400043FF204605223021FFF73EFF20460122A7
:102D50003121FFF739FF204600223221FFF734FFEF
:102D6000204600223321FFF72FFF20460022342186
:102D7000FFF72AFF204600223521FFF725FF2046D6
:102D800000225B21FFF720FF204610225C21FFF785
:102D90001BFF204620225D21FFF716FF20468C22D4
:102DA0005E21FFF711FF012070BD00BF00207047BA
:102DB00000207047F8B5144C037A242908BFC2805C
:102DC0005B0001250E462046C1F30721174684F813
:102DD0003B3084F85E5084F85D50FFF703FAF1B29F
:102DE0002046FFF7FFF9C7F307212046FFF7FAF95E
:102DF000F9B22046FFF7F6F929462046FFF7C2FB55
:102E0000B0FA80F04009F8BD10AFFF1F70B5012681
:102E1000044606713448FFF7F9F9052002F036FB45
:102E2000204644F260023021FFF7C4FF0546002827
:102E300057D06C2226212046FFF7BCFF4FF4F972D1
:102E400028212046FFF7B6FF40F622722C212046AB
:102E5000FFF7B0FF44F246423C212046FFF7AAFFAD
:102E600040F2371224212046FFF7A4FF44F2FF026C
:102E700030212046FFF79EFF732202212046FFF7F4
:102E800099FF4FF4C87002F001FB41F61D522E214C
:102E90002046FFF78FFF042211462046FFF78AFFE6
:102EA000302206212046FFF785FF10220A21204606
:102EB000FFF780FF00220E212046FFF77BFF43F63D
:102EC0003C4210212046FFF775FF47F67F72222112
:102ED0002046FFF76FFF362224212046FFF76AFFC6
:102EE0006672284670BD00BF10AFFF1F10B50446C4
:102EF00019B1012911D0002010BD55222021FFF762
:102F000059FF0028F7D0E28842F00402204692B22E
:102F10002421BDE81040FFF74DBF40F273122A2173
:102F2000FFF748FF0028E6D0882220212046FFF73F
:102F300041FF0028DFD0E288204622F0040224214D
:102F4000BDE81040FFF736BF38B50546F1B180291E
:102F500003799ABFC1F1800444EA0424002433B900
:102F6000224628462221BDE83840FFF723BFC28809
:102F7000002322F0100203712421FFF71BFF2246D9
:102F800028462221BDE83840FFF714BF0123037112
:102F900047F67F722221FFF70DFFEA8842F0100208
:102FA000284692B22421BDE83840FFF703BF00BF96
:102FB0009FED057ADFED057AE0EE077AFCEEE77A21
:102FC00017EE901AFFF7C0BF00000143EE7CFF3EF2
:102FD000F8B5037E102B04464FF000014FD0204679
:102FE00001F0B4FC0546002868D0637E012B57D958
:102FF000227E102A4FF000062AD005EB4602B2F9D5
:103000000470FBB1802E41D005EB46000230324601
:1030100001E0802A3AD0237EC3F1100327FA03F19E
:1030200001FA03F320F8023F0132637E911B9942BB
:10303000EFDB802A2AD0164605EB4602B2F904706F
:10304000002BDFD13246F4E73246802A1ED01646E6
:1030500005EB4602B2F90470002BF5D0802E15D096
:1030600005EB46010231324601E0802A0ED021F8FC
:10307000027F0132637E901B9842F6DBE5E7437ED8
:10308000012BACD801F056FC0546B8B120462946C4
:10309000002201F035FC2846BDE8F84001F006BCEE
:1030A000811C00F58170227E31F9023FC2F11002CD
:1030B0001341934088420B80F5D1E7E7F8BD00BF8C
:1030C000C369002B7ED0436A012B2DE9F0474FF0F6
:1030D000000180464EDD01F039FC0746002872D021
:1030E000D8F82400D8F81C50D8F828C0461E07F19C
:1030F000040E9CFBF6F607F58279013E4FF0000ABC
:10310000B8F8203001331BB29C45CBBFA8F8203063
:10311000A8F820A05B000023BEF90020EA52002896
:10312000B8F920301EDD00221146012835F9134080
:1031300018BF9B1B002B02F10102B8BF63449042F1
:103140002144F2D191FBF0F12EF8021BCE45D7D1EC
:1031500040463946002201F0D3FB3846BDE8F0472F
:1031600001F0A4BB002191FBF0F12EF8021BCE452B
:10317000C6D1EDE701F0EAFB044620B3D8F8286099
:10318000D8F81C50021D002700F58270B8F82030D6
:1031900001331BB2B342B4BFA8F82030A8F82070A6
:1031A00032F9021BB4BF5B0000238242E952EDD129
:1031B00040462146002201F0A3FB2046BDE8F0472F
:1031C00001F074BB7047BDE8F08700BF41627047F3
:1031D0002DE9F04F002183B0054601F0B7FB0090C8
:1031E000002800F0FB802B7F002B00F08C80009AE1
:1031F00002F5827302F1040A9A4501937CD2DDF84C
:1032000004E056E02B7F022B00F08280032B66D077
:10321000042B00F08880052B00F09680062B00F030
:10322000E080072B00F0A180012B00F0B2806B6AD8
:103230002A6A5B1403EBA2329C1818191F1803EBBF
:10324000070C03EB0C0699190B444FF6FF7BDAF8D9
:103250000090DAF8048032FB09F234FB19F4C2EA78
:10326000044230FB08F037FB18F7C0EA0747DAF8EA
:1032700008003CFB00F0DAF8084036FB14F6C0EA20
:103280000646DAF80C0031FB00F133FB10F3C1EA1B
:1032900003438AE88400CAF80860CAF80C302A6A36
:1032A0006B6AA5F81EB013440AF1100A2B62D645CA
:1032B00022D9E98B0029A5D06B6A2A6A5B1403EB3B
:1032C000A2329C1818191F1803EB070C03EB0C060D
:1032D00001F1FF3B99191FFA8BFB0B44B7E72B6BEE
:1032E000EA8DEA834FF00401D64503F14043297784
:1032F00093FBF2F36B62DCD8009C28460022214647
:1033000001F0FEFA204603B0BDE8F04F01F0CEBA5E
:10331000AB8DEB83002BE2D003234FF080422A6277
:1033200069622B77C3E72B6B69624FF005022A773E
:103330009A132B62114613461646944617461046BA
:1033400014464FF6FE7B82E76B6A2A6A5B1403EB36
:10335000A2329C1818191F1803EB070C03EB0C067C
:1033600099190B444FF6FE7B71E72B8D2962EB8395
:10337000D3B103F1FF3B4FF001022A770B461FFA4E
:103380008BFB69620E468C460F4608460C460A4681
:103390005DE76B8DEB834FF002022A774FF080429E
:1033A00092FBF3F36B6282E7B5F82AB04FF08043EB
:1033B00093FBFBF35A1454001019171802EB070C77
:1033C00002EB0C060BF1FF3B91194FF002086B6208
:1033D00085F81C801FFA8BFB531838E703B0BDE853
:1033E000F08F019B2977534586D9CAF80010CAF897
:1033F0000410CAF808100AF1100A53454AF8041CD0
:10340000F3D879E72DE9F04F9BB0044601F0FAF9C3
:103410001590002800F073820021204601F08AFAFE
:103420001690002800F07482354B199345F24C69D0
:1034300045F24E6534F90930039345F25060635FFD
:10344000189345F25267235E179345F25466E35F83
:10345000049345F25661A35F079345F25862635E99
:103460000693A35E059304F5AC431A4604F5C549DB
:103470001E46CDF8409002F13C093E320A9206F118
:1034800040020B9206F142020C9206F144020D92A8
:1034900006F146020E9206F14802109B0F92324648
:1034A0004A3202921A46183210921A461A3245F2DD
:1034B0005A6A119245F25E681A4645F25C6C45F212
:1034C000606E1C321E3334F90AB0129234F908804F
:1034D00034F90CC034F90EE0CDF804901393169B28
:1034E0001798189DCDF820B09A1C0092159A03F5F4
:1034F00081730232099214934FF0000A02E000BF78
:10350000C4760000009B33F9022F009302EB0212F5
:1035100002EB0222520022F34F42019B03991E88C4
:1035200004EB460701FB0CF9B7F91C3003FB0899C3
:1035300029F3CF390FFA89F1039112B201FB0EF989
:1035400029F3CF39914409F30F090136A7F81C90EC
:103550000199B6B240F25B47BE4294BF0E80A1F81B
:1035600000A00A990E8804EB460905FB0CF5B9F991
:10357000D4783B4407FB085525F3CF352DB205FB26
:103580000EF727F3CF37174407F30F070136A9F8D3
:10359000D478B6B240F2A347BE428ABF0A990E80E1
:1035A000A1F800A00B990E8804EB460707F5905789
:1035B0001C37B7F9009000FB0CF04B4409FB0800E6
:1035C00020F3CF3000B200FB0EF929F3CF3991443C
:1035D00009F30F090136A7F80090B6B240F2FC4794
:1035E000BE428ABF0B990E80A1F800A00C990E88EC
:1035F000049904EB460707F5E0571637B7F9009032
:1036000001FB0CFB4B4409FB08BB2BF3CF3B0FFA30
:103610008BF9CDF8109009FB0EF929F3CF399144BD
:1036200009F30F090136A7F800900C99B6B240F2E1
:103630004B57BE4294BF0E80A1F800A00D990E8892
:10364000079904EB460707F51A572E37B7F900908C
:1036500001FB0CFB4B4409FB08BB2BF3CF3B0FFAE0
:103660008BF9CDF81C9009FB0EF929F3CF39914461
:1036700009F30F090136A7F800900D99B6B240F290
:103680008D57BE4294BF0E80A1F800A00E990E88FF
:10369000069904EB460707F547570A37B7F9009034
:1036A00001FB0CFB4B4409FB08BB2BF3CF3B0FFA90
:1036B0008BF9CDF8189009FB0EF929F3CF39914415
:1036C00009F30F090136A7F800900E99B6B240F23F
:1036D000D257BE4294BF0E80A1F800A00F990E8869
:1036E000059904EB460707F575573037B7F9009091
:1036F00001FB0CFB4B4409FB08BB2BF3CF3B0FFA40
:103700008BF9CDF8149009FB0EF929F3CF399144C8
:1037100009F30F090136A7F800900F99B6B240F2ED
:103720001467BE4294BF0E80A1F800A002990E88D3
:10373000089904EB460707F593471A37B7F9009045
:1037400001FB0CF14B4409FB081121F3CF3109B205
:10375000089101FB0EF929F3CF394A4402F30F0215
:103760000136B6B2B6F5CA6F3A808ABF029A02999C
:10377000A2F800A047F6E12298BF0E8002FB03F3F7
:1037800023F34F4310990E8804EB460707F5AC4727
:103790000FFA83F9B7F9622003EB6203A7F86230EE
:1037A000C9EB020222F34F020136B6B2B6F50B7F27
:1037B00038BF0B46119938BF1E800E8828BF109B5A
:1037C00004EB460707F5B54728BFA3F800A0B7F9F3
:1037D0003A300FFA82F902EB63027A87C9EB0303EE
:1037E00023F34F030136B6B2B6F5DC7F98BF0A4625
:1037F000129998BF16800E8888BF119A04EB46076D
:1038000007F5BC4788BFA2F800A0B7F92C200FFA33
:1038100083F903EB6203BB85C9EB020222F34F027B
:103820000136B6B2B6F5AA7F98BF0B46139998BF7A
:103830001E800E8888BF129B04EB460707F5C14720
:1038400088BFA3F800A0B7F956300FFA82F902EB4F
:103850006302A7F85620C9EB030323F34F03013695
:10386000B6B2E02E96BF0A46139A16801BB2C3EB7F
:10387000031388BFA2F800A05B0003F30F03099AAB
:1038800022F8023F009B0992149A93427FF43AAEC9
:1038900045F24C63BDF80C10E15245F24E6245F220
:1038A000506645F25263A552BDF81010A05345F280
:1038B0005465E15245F25662BDF81C30635345F23F
:1038C0005A60BDF81830A35245F25866BDF814305E
:1038D000DDF820B0A35324F800B02046159C002248
:1038E000214601F00DF8204600F0E0FF1698199AE5
:1038F00090420AD01BB0BDE8F04F00F0D7BF0146A0
:10390000204601F017F80028F4D11BB0BDE8F08F75
:10391000014B1993169389E5C4760000F8B5044667
:10392000674B03600021012004F118020B4660720E
:1039300022612172E16000E0226942F82310627A7C
:1039400001339A42F8DC5F4B1A680AB9B6E01A46AE
:103950005369002BFBD15461204600255A4B656109
:10396000A580E580A572294640F81C3B40F6B802C8
:1039700003F0B2FA294640F6481204F6D40003F0E8
:10398000ABFA04F59050294640F6FA121C3003F0C9
:10399000A3FA04F5E050294640F69822163003F0C9
:1039A0009BFA04F51A50294640F61C322E3003F0DB
:1039B00093FA04F54750294640F6A6320A3003F040
:1039C0008BFA04F57550294640F62A42303003F050
:1039D00083FA04F59340294640F6A2421A3003F0D8
:1039E0007BFA45F23C6345F23E6045F2406745F2A2
:1039F000426145F24462E55245F24666255245F27F
:103A0000486345F24A60E553655245F24C67A5525A
:103A100045F24E6145F25062A553E55245F25266B9
:103A2000255245F2546345F25660E553655245F21E
:103A30005867A55245F25A6145F25C62A553E552BA
:103A400045F25E66255245F2606341F69910E553F2
:103A5000655246F26767A05246F6843204F5AC40E0
:103A60002946A7536230E2524FF48B6203F034FAD6
:103A700004F5B540294640F272323A3003F02CFA90
:103A800004F5BC40294640F2AA222C3003F024FA67
:103A900004F5C14029464FF4E172563003F01CFA98
:103AA00046F2982046F29A2146F29C2246F29E2344
:103AB000255265522046A552E552F8BD1C604BE7E1
:103AC000FC73000024520120D07700002DE9F84358
:103AD0004FF00008064600F11805474641463046BB
:103AE000002F4FD000F026FFF0B12C68B4F5803FD6
:103AF00007F1040100F1040E07F5827C27D05EF87F
:103B0000042B34FB02F334FB12F903F30F0209F325
:103B10000F03C2EA03430A6893FA12F341F8043B25
:103B20008C45ECD800F0C2FE08F10108B8F1040F92
:103B300005F10405D2D1002F40D03046394600228D
:103B400000F0DEFE3846BDE8F84300F0AFBE07F1F6
:103B50000C0100F10C0451F8083C54F8082C93FABD
:103B600012F341F8083C54F8042C51F8043C93FA41
:103B700012F38C4541F8043C04F1080401F10801FA
:103B8000E9D8CFE700F0E2FE07460028CCD028684D
:103B9000B0F5803FC8D0391D07F582740B6830FB43
:103BA00003F230FB13F302F30F0203F30F03C2EA35
:103BB000034341F8043B8C42F0D8B5E7BDE8F883F5
:103BC0002DE9F84F334B34481A68344912681B7991
:103BD0000B70824229D2324B1B784BBBDFF8D0A04E
:103BE000DFF8D090DFF8D080DFF8D0B0DAF80060EE
:103BF000D9F80070B8F80040BBF80050002E3BD058
:103C00009FB33A1D311D02EB450201EB440100F068
:103C100047FD403540347F2C1BD8A8F800407F2D4D
:103C20000AD8ABF80050BDE8F88FA0F58070D5E752
:103C30001C4B01221A60D1E700243846ABF8004043
:103C400000F034FE184B1A68C9F800201C60BDE86B
:103C5000F88F00243046A8F8004000F027FE134BF0
:103C60001A68CAF800201C60D9E7311D01EB440135
:103C700000F035FD4034CEE737B1391D01EB450189
:103C800000F04DFD4035C6E74FF48072394603F031
:103C900023F9C0E70052012080A5FF1F1F800040CC
:103CA0001852012008E200E0145201201C520120A9
:103CB0001052012008520120FE5101200C52012017
:103CC00070B50021044600F035FE80B172B61C4A82
:103CD0001368002B29D01B490D6805B31A4E1560D7
:103CE00000220860328062B6184600F0DFFD2046F0
:103CF000012100F01FFE88B172B6144A1368CBB1DF
:103D000013490C6874B1134D1460002208602A80B6
:103D100062B61846BDE8704000F0C8BD70BD0860CE
:103D200062B6E4E7086062B670BD074910600B80B8
:103D300062B6DCE7074910600B8062B670BD00BF59
:103D4000105201201C520120FE5101200852012076
:103D5000145201200C52012010B5044600F048FF17
:103D6000204610BD284B29491A68294842F40042D0
:103D70001A600A6842F002020A601A6842F00202FF
:103D80001A600368002B3EDB224B1B68002B3ADBDA
:103D9000214A4FF0864313601368002BFCDBF0B51B
:103DA0001E4C1F48DFF8A8E01E491F4B1F4A204F3A
:103DB000204E214D47F2540CC4F800C0002404608A
:103DC0000120CEF80000DFF88CE0C1F800E04FF4ED
:103DD00080311960194B1360DFF87CE0184A3A60B3
:103DE0003460286000F18E40CEF80000154CB967B1
:103DF0001548164946F8503C4FF4C0632A612360C9
:103E000003600B60F0BD70473C800440408004407C
:103E100000F0024080F0024000F1024004F1024054
:103E200060F0024008F002400CF0024010F0024046
:103E300014F00240E0F0024084F002401B1F010039
:103E4000001F1F1F08B004400CB0044018B004400D
:103E500004F002400100000788F00240F8B5284C49
:103E6000284F2046012100F05FFE274A274B0025FE
:103E700015601D60FFF776FF254B264A2648DFF8C0
:103E8000B0E04FF4C0611960236824491A6002262B
:103E90009E802279D86002F1804202F504324FF40C
:103EA0008070C3F810E09E60D88240F2011ED88373
:103EB00006268D209D829D61A3F806E09E831570E5
:103EC000107022793A70164B164D4FF080720A60CE
:103ED0000B6000F0CFFD2279134B144C1870531176
:103EE0009B0003F1604302F1100003F5614302F00F
:103EF0001F02012101FA02F244F820501A60F8BDB5
:103F0000005201201B800040105201200852012065
:103F100004B0044080A4FF1F00FEFFFF00F0024039
:103F200001000090C13B00001852012000A8FF1FB3
:103F300022F00240024A0349034802F0D3BC00BF0A
:103F4000D4ADFF1F593D0000005201202DE9F04F74
:103F5000C56A83B015B903B0BDE8F08F064600F01E
:103F600051FC014601900028F5D006F11C0292E8B0
:103F7000041401F1040EB369F44FF54801F58271A0
:103F8000009196F82810F34CDFF8CC9314F80180D8
:103F9000DC1704EA090989EA430382EA0A0909EA03
:103FA000080908EA040403F03F0862408AEA090AA3
:103FB000C3F3851457F8288050F82440CAEB02094F
:103FC000CC440131E04486F82810A04435FB08F8C1
:103FD000E149DC17214081EA430302F4006903F060
:103FE0003F0104F400642AF4006A624049EA0A0AC4
:103FF000C3F3851B57F8214050F82B10CAEB020978
:10400000CC446444214435FB01F1C8EA0144D2495F
:10401000CEF80040DC17214081EA430302F48068B7
:1040200003F03F0104F480642AF4806A624048EAA5
:104030000A0AC3F38519CAEB020857F8214050F861
:104040002910C4440CEB0408884435FB08F8C24925
:10405000DC17214081EA430302F4006903F03F01C9
:1040600004F400642AF4006A624049EA0A0AC3F3CD
:10407000851B57F8214050F82B10CAEB0209CC449D
:104080006444214435FB01F1C8EA0144B249CEF849
:104090000440DC17214081EA430302F4007803F076
:1040A0003F0104F400742AF4007A624048EA0A0AE4
:1040B000C3F38519CAEB020857F8214050F82910BC
:1040C000C4440CEB0408884435FB08F8A249DC170B
:1040D000214081EA430302F4006903F03F012AF41E
:1040E000006A04F40064544049EA0A0AC3F38512E2
:1040F000CAEB040957F8211050F82220CC4461443F
:104100000A4435FB02F2C8EA0241934ACEF808108D
:10411000D9170A4082EA430304F4806803F03F029F
:1041200001F480612AF4806A4C4048EA0A0AC3F329
:104130008519CAEB040857F8221050F82920C44406
:104140000CEB0108904435FB08F8834AD9170A4064
:1041500082EA430304F4006903F03F022AF4006A90
:1041600001F40061614049EA0A0AC3F3851B57F86C
:10417000224050F82B20CAEB0109CC44644422446D
:1041800035FB02F2C8EA0242734CCEF80C20DA1773
:10419000144084EA430301F4807802F4807203F04F
:1041A0003F042AF4807A514048EA0A0AC3F3851290
:1041B000CAEB010857F8244050F82220C4440CEB05
:1041C0000408904435FB08F8634CDA17144084EA7D
:1041D000430301F4006903F03F042AF4006A02F487
:1041E00000624A4049EA0A0AC3F38511CAEB020990
:1041F00057F8244050F82110CC446444214435FB46
:1042000001F1C8EA01445449CEF81040DC172140BE
:1042100081EA430302F4806803F03F0104F4806400
:104220002AF4806A624048EA0A0AC3F38519CAEB95
:10423000020857F8214050F82910C4440CEB040838
:10424000884435FB08F84449DC17214081EA4303E0
:1042500002F4006903F03F012AF4006A04F40064E8
:10426000544049EA0A0AC3F38512CAEB040957F815
:10427000211050F82220CC4461440A4435FB02F25C
:10428000C8EA0241344ACEF81410D9170A4082EA2B
:10429000430304F4007803F03F0201F400712AF4B0
:1042A000007A4C4048EA0A0AC3F38519CAEB0408AD
:1042B00057F8221050F82920C4440CEB0108904410
:1042C00035FB08F8244AD9170A4082EA430304F46C
:1042D000006903F03F022AF4006A01F400616140C2
:1042E00049EA0A0AC3F3851B57F8224050F82B20ED
:1042F000CAEB0109CC446444224435FB02F2C8EA0B
:104300000242154CCEF81820DA17144084EA430311
:1043100001F4806802F4806203F03F042AF4806AAA
:10432000514048EA0A0AC3F38512CAEB010857F85C
:10433000244050F82220C4440CEB0408904435FB80
:1043400008F8054ADC17224008E000BFF8780000B2
:10435000F8790000F87700000100004682EA430384
:1043600001F4006904F400622AF4006A03F03F04D7
:104370004A4049EA0A0AC3F38511CAEB020957F811
:10438000244050F82110CC446444214435FB01F111
:104390000EF1200EC8EA01414EF8041C0099714547
:1043A0003FF6EFAD019CF2613046C6F820A0C6F89A
:1043B00024C0B3610022214600F0A2FA204603B0D7
:1043C000BDE8F04F00F072BA2DE9F04F436AC469BE
:1043D000866985B02BB906EBC414846105B0BDE8CD
:1043E000F08F0546D0F8208000F00CFA0746002830
:1043F00000F04781B5F9323006EB0802009200F177
:104400000408082B31D8DFE813F09B00B800000146
:1044100014010900C500DB00E9005000EE6A002E1F
:1044200000F02D81D5F824C0009900F5827E404629
:104430000A0E531CB3F5807F14BF5B000023C1F349
:104440000F29F35E36F9122009FB03F3C9F5803911
:1044500009FB023353FB0CF320F8023B7045214467
:10446000E6D1009B03EBC41300932C6A009AB5F9C4
:104470003430141BAC616BB107F5827101E0B5F902
:104480003430B8F90020134403F30F0328F8023B3B
:104490004145F4D828460022394600F031FA384622
:1044A00005B0BDE8F04F00F001BAAB6ACDF8088066
:1044B0004FEA5309190C6FEA09020192C1F57F43D3
:1044C0004FF0FF3A4646FF33D5F824C0BAFBF3F36A
:1044D000063007F5837B009ABAFBF1FA03979E46F4
:1044E000DDF8048020E0C9EB02073F0C0EFB07F764
:1044F0006FF0004109EB0203C91B1B0C09140AFBF6
:1045000003F30CFB01F103F1004390454FEA214115
:104510004FEA234340F2AE8031800230834522448B
:1045200006F1020600F0B280130C0AFB03F31B0C29
:104530000CFB03F391454FEA1343D4D93380ECE7E6
:10454000D5F824C0554E009900F5827E40460B0EEA
:104550005A1C36F9139036F91220C1F30F2ACAF506
:10456000803309FB03F30AFB023353FB0CF320F8FF
:10457000023B86452144EAD173E76E6A009A00F552
:104580008270434636FB12F123F8021B8342224419
:10459000F8D166E76E6A26F34F06A86A009A0FFA0A
:1045A00086FEBB1D764207F5837190428CBF23F8CF
:1045B00002EC23F8026C02338B422244F5D150E71F
:1045C000686A009A07F58276C043434630FB12F1D1
:1045D00023F8021BB3422244F8D142E700F5827A65
:1045E000009BC14603E0D14533463FF43AAFB5F9ED
:1045F000302029F8022BE618F5D3686A00F0A4FBF6
:104600006B6AA0EB63002886EDE76E6A26F34F061F
:10461000009A30B2BB1D764207F58371002AB4BF01
:1046200023F8026C23F8020C023399422244F5D19C
:1046300017E7811DD5F824C0009A00F5837009E0C2
:104640000CFB03F31B1421F8023C02318842224484
:104650003FF407AF930F013B012B4FEAE233EFD852
:10466000D30BC3F57F43FF330CFB03F31B0C21F883
:10467000023CEAE70CFB03F31B1433804DE700F028
:1046800015F9AB6903EBC413AB61A7E6009BDDF83A
:104690000880039F03EBC4130093E6E6047B00004D
:1046A0002DE9F04F00F5807EB1E8A00AB2E8401590
:1046B000C5EA0643C6EA2544C7EA0845C8EA2746CC
:1046C000C9EA0A47CAEA2948CBEA0C49CCEA2B4A8C
:1046D000A0E8F8078645E7D1BDE8F04F70474FF0F6
:1046E00000022DE9F00F00F5807C00BFB1E8A00AC0
:1046F000C5EA0203C2EA2544C7EA0205C2EA274620
:10470000C9EA0207C2EA2948CBEA0209C2EA2B4AEF
:10471000A0E8F8078445E9D1BDE8F00F70474FF0F5
:1047200000022DE9F00F00F5807C00BFB1E8A00A7F
:10473000C2EA0543C2EA0504C2EA0745C2EA07061F
:10474000C2EA0947C2EA0908C2EA0B49C2EA0B0AEF
:10475000A0E8F8078445E9D1BDE8F00F70472DE9DE
:10476000F00F089C00F5007B51F8045B53F8046BD4
:10477000C5EA0647C6EA254952F8045B54F8046BBB
:10478000C5EA0648C6EA254AA0E880078345EBD17A
:10479000BDE8F00F704700BFB1F5207FF0B428BF2F
:1047A0004FF4207172B6134A134C144B1060002260
:1047B000228003F1500443F8042FA342FBD1B1B18E
:1047C0000F4E002301275D0903F01F0456F8252032
:1047D00007FA04F4013322438B4246F82520F2D134
:1047E0000023438001338B4200F58270F9D162B619
:1047F000F0BC70472C52012086520120305201201B
:1048000034520120F0B472B6234F244E3C8806F196
:10481000500306EB8400984212D256F8241099B93E
:10482000021D06F15305631CAD1A03EB950503E069
:1048300052F8041B41B90133AB421C461046F7D174
:1048400062B60020F0BC7047B1FA81F34FF000422D
:10485000DA4021EA0201016001B9013410493C80CB
:104860000A88013294B20C8062B6801B8010C3EBC0
:10487000401000EB801083000A480B49006803F5E4
:10488000FB531C330125C5540D88AA42184488BF28
:104890000C80F0BC704700BF8652012034520120CA
:1048A000885201202C52012028520120428872B6E1
:1048B0000378012B03D9013B037062B67047531193
:1048C00070B40C4C0C4D54F823102E88D2434FF08A
:1048D000004002F01F0220FA02F21143074A44F896
:1048E0002310B34238BF2B801388013B138062B67C
:1048F00070BC70473452012086520120885201203A
:10490000C368B3B130B401E0DB688BB1187A904270
:10491000FAD158685C7A006950F82450002DF3D120
:1049200040F82410087801300870DB68002BEDD1C6
:1049300030BC7047437A8B4206D90369002253F892
:10494000210043F8212070470020704738B5437A92
:104950008B421AD9036953F82140002243F82120E1
:104960009CB12378012B0ED9FFF74CFF054628B1E7
:104970004FF48072211D043000F082FB2378013B4C
:104980002370284638BD204638BD002038BD00BF02
:10499000037C23BB4368427A5B7A9A421FD830B4C7
:1049A00072B60468E3682BB3DA6832B119688C42D6
:1049B00016D01346DA68002AF8D1D8600023C36005
:1049C000A37A0133A37202684168012313728A7AC1
:1049D0001A448A7242681372037462B630BC70471C
:1049E0005D6841688D42E4D1198903899942F4D008
:1049F0001346DFE7E060E1E7037C10B5002B32D01F
:104A00004368427A5B7A9A422DD872B60268D368BC
:104A100043B3984202D129E0984202D0DB68002BD0
:104A2000FAD14368417A1B69044653F8210048B122
:104A3000FFF73CFF72B66368627A1B69002143F896
:104A400022102268937A013B937223689A7A02B902
:104A50001A726268937A013B937263689A7A1AB108
:104A60000023237462B610BD1A72F9E7C368D360DD
:104A7000D7E700BF084B1A785AB90848084910B45C
:104A8000D0240470012210460A601A705DF8044BAD
:104A900070470020704700BF3052012040E400E022
:104AA00008E100E01A491B4A1B48F8B50B681B4D8A
:104AB000046843F080730B60136843F001031360D4
:104AC0002E6814B915E064699CB1237A002BFAD0E2
:104AD00023682F681B68204698472B68E188DB1BFA
:104AE0001B099AB28B42A28088BFE2806469002CC5
:104AF000EBD10A4B0A4A1B6810880A4C9B1B1B0906
:104B000099B28342218001D91180F8BDF8BD00BF60
:104B1000FCED00E0001000E024520120041000E051
:104B2000845201208A520120F0B572B699B9026808
:104B30008AB103790F2B0ED8274C218841FA03F54F
:104B4000ED070AD503F1007303F59063B2EB431F41
:104B500003D162B6F0BD204C2188002341FA03F254
:104B600012F0010207D00133102BF7D162B60022F8
:104B700003710260F0BD01259D402943218062B68A
:104B8000164E174D174FDFF864E0D9B20171346843
:104B900044F0020434602C6844F002042C60A6F552
:104BA00080268224A5F5802503F100733C6003F57F
:104BB0009063223E243D0C4C8EF800105B01317056
:104BC0002970217003601A605A609A60DA601A6175
:104BD0005A619A61DA61F0BD8C5201204080044034
:104BE0003C800440008000401F8000401A8000404C
:104BF00003790F2B12D80A4A10B4137072B6094900
:104C000004790A880123A34022EA03030B8062B6D9
:104C1000102200235DF8044B02710360704700BF4F
:104C20001A8000408C52012000B5064A03681288A1
:104C30005B6883B001A9ADF804200222984703B055
:104C40005DF804FB087D0000F0B507468BB0002A34
:104C500033D0012A08BF0A2251B3212400E0F4B264
:104C6000B1FBF2F502FB1511C8B2092900F13001C0
:104C700098BFC8B20AA988BF3730214488BFC0B2E4
:104C800001F8240C661E2946002DE8D133B1013C01
:104C9000E4B20AAB23442D2203F8242C3B6801AA7A
:104CA00011195B683846C4F1220298470BB0F0BD79
:104CB00030228DF825202124E8E70368C9B21B685B
:104CC00098470BB0F0BD00BF0029BABF49422D2361
:104CD00000230A22FFF7B8BFF0B5164D2A680AB3C1
:104CE0001549164BDFF85CE082FB016781FB02147B
:104CF000D617D1191444C6EB2141C6EB244403FB5B
:104D000004F40EFB112244F2A71303FB0243002B11
:104D100002DA03F10043013BB3FBF0F22B6000FB2E
:104D20001230F0BD064B2B60B3FBF0F200FB1230EB
:104D3000F0BD00BF905201205F0B4E83ECF4FFFFEB
:104D400042CE0C1F1DF3010008B1FFF7C5BF70472D
:104D5000374A384913681B06FCD40B6813F08003EC
:104D6000F8D172B634490A78002A5FD0334A344801
:104D7000F0B4344C176806682568D4680C303E449B
:104D8000143200681268304F35442C4420440244E9
:104D9000C2F34E022D4E2E482E4D2F4C42F40042AF
:104DA0003A60376806682D682C4A24680C303E4407
:104DB000006812682A4F35442C4420440244C2F350
:104DC0004E02284E2848294D294C42F400423A60B0
:104DD000376806682D68274A24680C303E4400680E
:104DE0001268254F35442C4420440244C2F34E023D
:104DF000224E2348234D244C42F400423A60376847
:104E000006682D68214A24680C303E440068126808
:104E100035442C4420440244C2F34E021C4842F460
:104E2000004202600B7062B6F0BC704762B6704719
:104E300024B0034024B00B409552012038B0034009
:104E40003CB0034040B003402CB0034058B0034096
:104E50005CB0034060B0034064B003406CB00340FA
:104E600030B0034038B00B403CB00B4040B00B407A
:104E700044B00B404CB00B402CB00B4058B00B4032
:104E80005CB00B4060B00B4064B00B406CB00B40AA
:104E900030B00B4030B42948294A2A4B2A4D6024AF
:104EA000E121047011701B78284C082B30D00A2B9C
:104EB0002748284937D00C2B0CBF35225D221223FE
:104EC0002A60236002600B60234B24491B78244A2C
:104ED000BBB101230B601360224B23491B78234A8B
:104EE000012B26D9042B0FD9082B1ED9102B94BFC8
:104EF000862387230B6013601D4B01221A7030BC80
:104F000070470B601360E7E784230B601360F3E7DF
:104F100000F58E200F490830212213232A602360D8
:104F200002600B60D0E73922F7E785230B6013603E
:104F3000E2E780230B601360DEE700BF004007401C
:104F400001400740E8AFFF1F08B003400CB003402A
:104F500008B00B400CB00B409852012020B0034029
:104F600020B00B40E9AFFF1F24B0034024B00B403A
:104F70009552012047282FD8334B2DE9F0411E5C74
:104F8000FF2E2BD0314B1B78002B2AD132062CD48C
:104F900072B62F4D2F4C2F46012326602B7062B620
:104FA00072B623681B060CD43B781BB9F4E72B7848
:104FB000002BF1D062B601F0B3FB72B6236818067D
:104FC000F5D5254B1B6800222A7062B6234A10785B
:104FD00043FA00F0BDE8F081002070470020BDE8F2
:104FE000F081FFF7B5FE3206D2D572B61C4DDFF860
:104FF0007C801C4C06F04007FFB206F03F06D8F854
:105000000030DFB123F01003C8F800300123266020
:10501000134A2B7062B672B6236819060CD4137843
:105020001BB9ECE72B78002BE9D062B601F078FBD6
:1050300072B623681B06F5D50B4BC3E743F010038C
:10504000C8F80030E2E700BF0C7D00009552012057
:105050009752012000B0034010B003409452012049
:105060009652012000B00B4010B00B400CB00B402A
:1050700008B5FBF747FFFBF7A5FE01F051FBFAE788
:10508000844641EA000313F003036DD1403A41D353
:1050900051F8043B40F8043B51F8043B40F8043B12
:1050A00051F8043B40F8043B51F8043B40F8043B02
:1050B00051F8043B40F8043B51F8043B40F8043BF2
:1050C00051F8043B40F8043B51F8043B40F8043BE2
:1050D00051F8043B40F8043B51F8043B40F8043BD2
:1050E00051F8043B40F8043B51F8043B40F8043BC2
:1050F00051F8043B40F8043B51F8043B40F8043BB2
:1051000051F8043B40F8043B51F8043B40F8043BA1
:10511000403ABDD2303211D351F8043B40F8043B41
:1051200051F8043B40F8043B51F8043B40F8043B81
:1051300051F8043B40F8043B103AEDD20C3205D351
:1051400051F8043B40F8043B043AF9D2043208D049
:10515000D2071CBF11F8013B00F8013B01D30B88BB
:1051600003806046704700BF082A13D38B078DD099
:1051700010F003038AD0C3F10403D21ADB071CBF6B
:1051800011F8013B00F8013B80D331F8023B20F8D5
:10519000023B7BE7043AD9D3013A11F8013B00F80E
:1051A000013BF9D20B7803704B7843708B78837096
:1051B0006046704708B5104C08E0236859050DD4C7
:1051C00023681A050FD42368DB0411D4236858031D
:1051D000F3D500F017FB23685905F1D500F00EF860
:1051E00023681A05EFD500F009F82368DB04EDD534
:1051F00000F004F8EAE700BF3480044008B5FFF788
:10520000D9FF00BF014B10221A80704700200540D3
:10521000704700BF094908B50B6830B16A461844A9
:10522000A2F50052904202D20860184608BD01F073
:1052300065FB0C2303604FF0FF3008BDECAFFF1F90
:10524000FEE700BFF0B44D1E2E46002400E00134FE
:10525000B0FBF2F302FB1300092800F130078ABF0C
:105260003730F8B2C0B206F8010F1846002BEED165
:105270000A1953704CB1107815F8016F287001337A
:10528000E01A834202F80169F5DB0846F0BC70477A
:10529000704700BF10B4114B53F8302092F8804291
:1052A00034B1012379B182F880305DF8044B704746
:1052B00003EBC0035B681A6851B922F002021A605E
:1052C0005DF8044B704782F800315DF8044B70477D
:1052D00042F003021A605DF8044B7047547D0000F1
:1052E0001C4A02EBC00301295B6811D004291BD0C2
:1052F00052F83000002280F8802229B1022920D003
:10530000032922D01A6070474FF480721A607047E8
:1053100052F830004FF4A27280F880121A601A68B6
:1053200022F020021A60704752F830104FF4A27237
:10533000012081F880021A601A6842F020021A6087
:10534000704740F203121A6070474FF481721A607E
:10535000704700BF547D00003F2848D8F8B5042AA4
:1053600044D8DFE802F0484B4E0345004FF41026C6
:105370002B4B03EBC0030D465C68216811F4E06120
:1053800048D0284B284A2949C3F82C2104F140422F
:105390002748C3F83411A2F59221264FC3F83001F3
:1053A0007C292548C3F83871C3F83C012CD9A2F5F3
:1053B00094237C2B2AD9A2F596237C2B28D9A2F5FD
:1053C00098237C2B29D9A2F59A227C2A27D81B481E
:1053D00072B6236823F4702343F08072C4F384010F
:1053E0001643236040F82150266062B6F8BD70472E
:1053F0004FF43026BCE74FF40026B9E74FF44026BF
:10540000B6E74FF42026B3E70D48E1E70D48DFE7A4
:105410000D48DDE7FFF764FFB3E70C48D8E7F8BDB8
:10542000547D000000A8FF1FA9ADFF1F51ADFF1F55
:105430007DADFF1F25ADFF1FF9ACFF1F38B1FF1F6A
:10544000F0AFFF1F68B0FF1FC8B0FF1FF8B0FF1F0D
:1054500030B4054B054D064C002210211A602A601D
:105460002060196030BC704714D0034004D0034062
:1054700000D003403F2801D8FFF70CBF704700BFA2
:105480003F2801D8FFF72CBF704700BF2DE9F84334
:10549000054672B6204F214B214A1B683C681268B2
:1054A00062B6520102D5322B88BF013495B3C3F5E1
:1054B000EA331C4EDFF86490DFF86480BF334FF4AA
:1054C0007A72A6FB031302FB04F404EB931472B686
:1054D000D9F800103A68D8F800E062B6C1F5EA33AE
:1054E000BF33A6FB03031EF0806FC4EB93134FF48E
:1054F0007A7002D0322988BF013200FB0233B3F543
:105500007A7F04D3013D05D004F57A74DFE701F01A
:1055100007F9DCE7BDE8F8839C52012018E000E0C1
:1055200004ED00E089888888F8B53E4B3E49DFF8F5
:1055300018C13E4E3E4ADFF814E13E4D3E4C3F4F0F
:105540004FF0006018604FF0805018604FF000502E
:1055500018604FF0804018604FF000401860002045
:10556000086028234EF6FF71CCF80010CEF800300A
:1055700033600EF5012E13602B60236005F50025C6
:105580003B6004F50024B36207F50027936206F53B
:10559000012602F501220EF1100E05F6E87504F65B
:1055A000E87407F57F67103220362B602360CEF851
:1055B00000303B6013603360214EBB619361092270
:1055C0003260A7F5002706F58056203F0836386080
:1055D0003160BB60F36047F8042C06F5FD2607F543
:1055E000FE2706F2FC76043730603960B360FB605A
:1055F00046F8042C0836C7F8FC0F06F6FC7611486E
:1056000031602B6023600260FFF744FC1920FFF734
:105610003DFF00F05DFE40F21310BDE8F840FFF7DB
:1056200035BF00BF04E100E0048003401480034064
:105630001C800340248003402C80034034800340BE
:105640000080034000900B40088003400C80034022
:10565000431E032B14D872B60A4951F8230068B1CF
:1056600070B4094C058834F81320466841F823606B
:10567000521B24F8132062B670BC704762B67047A4
:1056800000207047F85201200054012001380328FF
:105690000BD872B6074B53F8203043B100205B683B
:1056A0000130002BFBD162B67047002070471846CE
:1056B000F9E700BF4C53012030B472B62B4A13787F
:1056C0001D0706D52A4B196A002936D0996A002988
:1056D00041D053781C0706D5254B196C00293ED0C4
:1056E000996C002939D09378190705D5204B196E8C
:1056F000002936D0996E89B1D3781B0707D51C4B8A
:10570000D3F880207AB3D3F8882011213AB162B659
:10571000184B00221A7030BC00F072BE0D21154CDF
:10572000154D227843F8315003EBC1030830013A9C
:105730005860227062B630BC704704220D4C0F4D89
:10574000217843F8325003EBC20308304A1E5860F8
:10575000227062B6EFE70521E1E70921DFE70822C1
:10576000ECE70C22EAE71022E8E700BF7C7F0000AC
:105770000000FF1F75530120C80040008800400052
:10578000431E032B1DD81B4A400140F0100030B4CB
:10579000104472B6184CE25C032A1BD8DFE802F012
:1057A0000212151703220D88E25410F0080F14BFDF
:1057B000C823882343EA054308310360416062B689
:1057C00030BC704708300222EDE70522EBE70830D5
:1057D0000422E8E7094A52F8230038B1084A52F88F
:1057E0002300416042F8231062B6E9E742F8231033
:1057F000034AF7E70000FF1F845301204C530120A8
:105800005C5301202DE9F04FDFF818B3DFF818A33F
:1058100087B044E0AE4F4FEA930807EBC809013E5A
:10582000D9F8042003F00803F6B2A2F1080003F04F
:10583000FF04002B40F0048157F838301B0C99B25C
:1058400022F8081C002B00F0F280A24B22F8064C34
:1058500042F8044C53F82620002A00F06E819E4D39
:1058600055F8263058609D4C45F8260034F816301F
:10587000194424F8161000F0A3FD002800F056810A
:10588000974A984B19F0080F00F1080018BF13460B
:10589000C9F8040047F8383008238BF800309BF82B
:1058A0000040E4B261071BD58F4B1B78ABB18F4929
:1058B0000A7802F0FF032AB1013BDBB20B70002B28
:1058C00000F0EF848A490A7802F0FF032AB1013B15
:1058D000DBB20B70002B00F0F78004238BF8003054
:1058E00004F0080303F0FF02002B00F0D6809AF8C2
:1058F0000030DBB21E098DD19C08DFF8D49159F835
:10590000342009EBC401C2F38302013A49680C2A2E
:105910007ED8DFE802F081817D7D7D7D7D7D477DC4
:105920007D7D07000868734D4A68734F734E286089
:1059300081B240F281606A4B6A604FF0010E002232
:10594000814249F834303A60C9F81020C9F818206B
:1059500086F800E05E4C00F2F480B1F5D06F80F084
:105960007883B1F5817F00F0628300F2878280291D
:1059700000F0EC82822940F01E83A98801F07F01AB
:10598000042900F218835E485E4C890008442270A6
:1059900062700278930740F1798384F800E04FF059
:1059A000020ED8E2544F3A6842B3574B534E574910
:1059B000188834780D784028864645F0020828BFBC
:1059C0004FF0400E002C84F001043470CEEB000048
:1059D0000CBF8824C82409EBC80680B285F00105F5
:1059E00044EA0E447260188049F8384072440D70E1
:1059F00018B9BEF1400F18BF00223A603D4B1A881B
:105A0000B2F5A06F04D100219A785970404B1A70FA
:105A1000404A012313703FE7364A158842F22100BD
:105A2000854200F0FF812E4A49F83420F0E72C4AE5
:105A30002C4B19F0080F18BF134647F838302BE7E6
:105A400000F0DEFC344A354952F82630002B00F0D5
:105A5000B68158688C5D42F8260003F10802C9F847
:105A60000420032C05D8DFE804F0120F15020422ED
:105A70008A551A8819F0080F0CBF8823C82343EAF7
:105A8000024347F8383007E702228A55F1E703223C
:105A90008A55EEE705228A55EBE7E00700F11A8206
:105AA000210600F14982A20706D51D4A1D49137837
:105AB0000220DBB213700870E30602D5194B1022E6
:105AC0001A7007B0BDE8F08F00F006FE05E700BFD2
:105AD0000000FF1FF8520120A452012000540120B1
